:020000040800F2
:1000000058070020890100088D170008D116000844
:100010008917000845020008B91800080000000010
:10002000000000000000000000000000951700081C
:1000300061020008000000009117000899170008ED
:10004000A3010008A3010008A3010008A301000800
:10005000A3010008A3010008A3010008A3010008F0
:10006000A3010008A3010008A3010008A3010008E0
:10007000A3010008A3010008490200085502000876
:10008000A3010008A3010008A3010008A3010008C0
:10009000A3010008A3010008A3010008A3010008B0
:1000A000A3010008A3010008A3010008A3010008A0
:1000B000A3010008A3010008A3010008A301000890
:1000C000A3010008A3010008A3010008A301000880
:1000D000A3010008AD180008A3010008A30100084F
:1000E000A3010008A3010008A301000800F002F822
:1000F00000F03AF80AA090E8000C82448344AAF188
:100100000107DA4501D100F02FF8AFF2090EBAE885
:100110000F0013F0010F18BFFB1A43F0010318473B
:100120003418000054180000103A24BF78C878C171
:10013000FAD8520724BF30C830C144BF04680C60ED
:10014000704700000023002400250026103A28BF35
:1001500078C1FBD8520728BF30C148BF0B60704739
:100160001FB51FBD10B510BD00F031F81146FFF7E7
:10017000F7FF01F0A3FB00F04FF803B4FFF7F2FF25
:1001800003BC00F057F800000948804709480047C1
:10019000FEE7FEE7FEE7FEE7FEE7FEE7FEE7FEE737
:1001A000FEE7FEE704480549054A064B7047000094
:1001B0009D170008ED000008580100205807002096
:1001C0005803002058030020704770477047754659
:1001D00000F02CF8AE4605006946534620F00700B3
:1001E000854618B020B5FFF7DDFFBDE820404FF091
:1001F00000064FF000074FF000084FF0000BAC4630
:10020000ACE8C009ACE8C009ACE8C009ACE8C0097A
:1002100021F007018D46704710B50446AFF300800A
:100220002046BDE81040FFF7A8BF00000048704717
:100230001000002001491820ABBEFEE72600020096
:1002400070470000FEE7000040F2C400C2F2000068
:1002500000F08CB840F28000C2F2000000F086B8D6
:1002600070470000EFF3108072B600BFFEE7000099
:10027000014690F82100022816D10868D1E90FC381
:10028000026822F00E020260026822F0010202609F
:10029000012000FA03F2CCF8042081F821000020AC
:1002A000002281F82020704704208863012000226A
:1002B00081F820207047000080B590F821100229B5
:1002C00024D10268116821F00E0111602F211368FA
:1002D000C4F202018A4240F20401C4F2020123F096
:1002E0000103136016DD3023C4F202039A421DD0CD
:1002F0004423C4F202039A421CD05823C4F20203DE
:100300009A421DD14FF4803322E000BF0421816363
:10031000012080BD0823C4F202039A420ED01C23A0
:10032000C4F202039A420BD1102311E04FF4807300
:100330000EE000BF4FF480530AE000BF012307E046
:1003400001F1680C4FF08073624508BF4FF48013D1
:100350000B60012180F82110426B002180F82010F1
:100360000AB190470021084680BD000010B5D0E9D1
:100370000FCE0168DCF800300A6823FA0EF35C0740
:100380002AD512F0040427D00A68920603D40A681A
:1003900022F004020A602F22C4F20202914240F2CB
:1003A0000402C4F202025BDD3023C4F2020399426C
:1003B00072D04423C4F20203994273D05823C4F28A
:1003C0000203994240F07A804FF480231360C16A9F
:1003D000002940F098806FE09C0727D512F00204B6
:1003E00024D00A68920606D40A6822F00A020A603B
:1003F000012280F821202F22C4F20202914240F211
:100400000402C4F202023BDD3023C4F2020399422B
:1004100060D04423C4F2020399425FD05823C4F24F
:100420000203994260D14FF4003365E01B0743D5C6
:1004300012F0080208BF10BD0A6822F00E020A601E
:10044000012101FA0EF2CCF80420816380F821101A
:10045000016B0022002980F8202054D12CE000BF3D
:100460000823C4F20203994222D01C23C4F20203DF
:10047000994223D140231360C16A002943D11BE074
:100480000823C4F2020399422CD01C23C4F20203B5
:10049000994229D120232FE04FF480631360C16A71
:1004A00089BB09E04FF480431360C16A59BB03E084
:1004B00004231360C16A31BB10BD00BF02F16804A0
:1004C0004FF08063A14208BF4FF480031360C16AFC
:1004D000C9B9F1E74FF400730EE000BF4FF40053C9
:1004E0000AE000BF022307E002F168044FF0007346
:1004F000A14208BF4FF400131360816A0022002953
:1005000080F82020D8D0BDE81040084701460028D8
:100510004FF0010008BF70472DE9F043D1F800C04B
:100520004FF6F873CBF6FD734CF6CD426344CCF630
:10053000CC42A3FB02236FF0030707EA93030027D3
:10054000C4F2020701F10C09C1E90F730223D1E9DA
:10055000012E99E87002D1F81C8081F82130DCF876
:10056000003043F6F077BB431A4342EA0E022243BF
:100570002A43324342EA090242EA0802CCF8002048
:1005800000228A6381F8210081F820200020BDE844
:10059000F04370472DE9F04F82B041F20042C4F2BF
:1005A00001020E680423904208BF0323002E00932B
:1005B00000F0F68040F2004C4FF6FF7E0022C4F2BD
:1005C000010C0124C1F2100E4FF0000A4FF0000997
:1005D00047E000BF012502F00C040F27A7402BEADB
:1005E000070705FA04F43C4343F82640D1F804B069
:1005F00040F20C455FEACB23DCF8083054BF23EA15
:10060000080343EA0803C4F20105CCF808302B685C
:100610005FEA8B2454BF23EA080343EA08032B60F4
:100620005FEA8B34DCF8043054BF23EA080343EA62
:1006300008035FEACB34CCF80430DCF800304FF02C
:10064000010454BF23EA080343EA0803CCF800304E
:100650000E680AF1010A36FA0AF302F1040200F008
:100660009F8004FA0AF816EA080FF1D04B68734528
:1006700012DC122B56D8DFE803F0350B45495555EF
:1006800055555555555555555555554D510000BF66
:10069000D1F80C9046E000BF4FF6FF75C1F221057E
:1006A000AB420FDC0025C1F21105AB421AD0002588
:1006B000C1F21205AB4215D00025C1F22105AB42B3
:1006C00010D02FE00025C1F22205AB420AD0002550
:1006D000C1F23105AB4205D00025C1F23205AB4273
:1006E00020D100BF8B684BB1012B14BFC0F8148020
:1006F000C0F810804FF0080914E000BF4FF0040963
:1007000010E000BFCB6803F108090BE04FF00009CF
:1007100008E000BFCB6803F1040903E0CB6803F1F4
:100720000C0900BF13460546BAF1080F24BF203B51
:1007300004352E680F279F40BE4309FA03F3334365
:100740002B60CB79DB067FF583AF41F21804C4F24E
:10075000020423684FEA9A0643F0010323602368EA
:1007600040F6000403F001030193019BACF57E7396
:1007700053F826B0C4F20104A0420FD040F6004462
:10078000C4F20104A0423FF425AF41F20004C4F2D8
:100790000104009DA04208BF02251CE700251AE7BE
:1007A00002B0BDE8F08F000040F25010C2F200002D
:1007B0000068704740F2000040F25011C2F20000A1
:1007C000C2F2000100780A68104408607047000017
:1007D00080B542F20000C4F20200016841F010014D
:1007E0000160032000F08AF80F2000F005F800F007
:1007F00027F8002080BD000070B540F20006C2F26C
:10080000000640F208013278C2F200014FF47A7318
:100810000968B3FBF2F20446B1FBF2F1084600F0BE
:100820005FFB0F2C4FF0010508D838B94FF0FF30AF
:1008300021460022002500F035F87460284670BD7E
:1008400082B041F21800C4F202000168022241F0B5
:1008500001010160016801F0010101910199416804
:1008600041F080514160406800F080500090009855
:100870000420C4F20100016862F31A61016002B051
:1008800070470000002848BF704700F01F01012298
:1008900002FA01F14EF200124009CEF2000242F8D3
:1008A0002010704710B54EF60C5CCEF2000CDCF850
:1008B0000030C3F3022E8EF00704042C28BF04245A
:1008C000BEF103034FF0FF3E0EFA04F438BF0023DD
:1008D000A14399400EFA03F39A43114300F00F022B
:1008E000043A624409010C3200F16043B0F1FF3F69
:1008F000C8BF03F56442117010BD00004EF60C51E4
:10090000CEF200010A684FF6FF031A4060F30A2294
:1009100042F0806040F0FD70086070472DE9F043C0
:1009200081B0002800F0858042F20008C4F202087D
:100930000446D8F800000D4600F0070088420CD2AB
:10094000D8F8000020F007002843C8F80000D8F8C5
:10095000000000F00700A8426BD1206841F20409B2
:100960008107C4F2020917D5410705D5D9F800104F
:1009700041F4E061C9F80010010705D5D9F800106D
:1009800041F46051C9F80010D9F80010A26821F0B4
:10099000F0011143C9F80010C00741D1D8F8000098
:1009A00000F00700A8420CD9D8F8000020F007009A
:1009B0002843C8F80000D8F8000000F00700A8425B
:1009C00037D12068410707D5D9F80010E26821F433
:1009D000E0611143C9F80010000708D5D9F80000FC
:1009E000216920F4605040EAC100C9F80000D9F83C
:1009F000002002F00C00082841F20020C0F27A002A
:100A000050D141F64413C2F38341C0F60003595C50
:100A1000D2033BD440F60010C0F23D00484341E011
:100A2000606802280AD001282AD159F8041C8903D9
:100A300008D4012001B0BDE8F08300BF59F8041CC0
:100A40008901F6D5D9F8001021F003010843C9F84F
:100A50000000FFF7A9FE064641F28837D9F80000EA
:100A6000616800F00C00B0EB810F97D0FFF79CFE9F
:100A7000801BB842F2D9032001B0BDE8F08300BF6B
:100A800059F8041C8907D4D5DCE700BFD9F8002049
:100A900041F64213C2F34042C0F600039A5C484359
:100AA000B0FBF2F0D9F8001041F62A12C1F303119D
:100AB000C0F60002515C40F2080220FA01F140F257
:100AC0000400C2F200000068C2F200021160FFF7E9
:100AD00093FE002001B0BDE8F083000040F2080062
:100AE00041F20401C2F20000C4F202010068096888
:100AF00041F63A12C1F30221C0F60002515CC8402F
:100B00007047000040F2080041F20401C2F2000008
:100B1000C4F202010068096841F63A12C1F3C22129
:100B2000C0F60002515CC840704700002DE9F0415A
:100B300082B0002868D00446007841F20006C00761
:100B4000C4F2020625D0706800F00C0004281BD007
:100B5000706800F00C00082802D17068C00313D43C
:100B60006068002800F06881B0F5A02F00F07C815B
:100B7000B0F5803F00F07C81306820F48030306038
:100B8000306820F4802076E13068800301D5606809
:100B9000D0B32078800718D5706810F00C0F07D0FC
:100BA000706800F00C0008286ED17068C0036BD428
:100BB0003068800702D52069012825D13068616935
:100BC00020F0F80040EAC1003060207800071FD410
:100BD0002078400732D4E56995B1706800F00C00C8
:100BE000082840F08F80012D0ED07068216A00F433
:100BF00080328A4208D1616A00F47010884203D1C1
:100C0000002002B0BDE8F081012002B0BDE8F08113
:100C1000A069002862D00020C4F242200121C0F85F
:100C20008014FFF7C1FD0546706A800700F18C80D3
:100C3000FFF7BAFD401B0228F6D92AE1F06910F04F
:100C4000805808D1F06940F08050F061F06900F000
:100C500080500090009847F20007C4F200073868FF
:100C6000C00529D4386840F480703860FFF79CFDD7
:100C7000054600BF3868C0051ED4FFF795FD401B30
:100C80006428F7D905E100BF2069002840F2000080
:100C9000C4F2422000F0828001210160FFF784FD50
:100CA000054600BF306880073FF588AFFFF77CFD41
:100CB000401B0228F6D9ECE0E068002800F08080B4
:100CC000052800F09780012800F09880306A20F015
:100CD00001003062306A20F0040092E00020C4F28B
:100CE00042200021C0F88014FFF75EFD054600BFDA
:100CF000706A80077FF56CAFFFF756FD401B022836
:100D0000F6D9C6E00027C4F2422700203866FFF774
:100D10004BFD022D05460BD13068800140F1BE80AD
:100D2000FFF742FD401B02284FF00300F4D968E7AB
:100D3000306880017FF564AFFFF736FD401B022865
:100D40004FF00300F4D95CE740F20800C2F2000063
:100D5000006844F6D351C1F26201A0FB0101480AC8
:100D6000019000BF00BF0198411E002801913FF48F
:100D70002FAF00BF0198411E002801913FF428AF1A
:100D800000BF0198411E002801913FF421AF00BF30
:100D90000198411E00280191E4D119E7002101606A
:100DA000FFF702FD054600BF306880077FF50DAFF5
:100DB000FFF7FAFC401B02284FF00300F4D920E7AC
:100DC000306A20F001003062306A20F004003062A6
:100DD000FFF7EAFC054641F2883700BF306A80071A
:100DE00020D5FFF7E1FC401BB8424FF00300F5D9D6
:100DF00007E700BF306A40F004003062306A40F01C
:100E000001003062FFF7D0FC054641F2883700BF91
:100E1000306A800706D4FFF7C7FC401BB842F7D9F9
:100E200037E000BFB8F1000F7FF4D5AEF06920F0D5
:100E30008050F061CFE600BF306820F48030306031
:100E4000306820F480203060FFF7AEFC054600BF1C
:100E5000306880037FF59DAEFFF7A6FC401B642839
:100E60004FF00300F4D9CCE6306840F480203060C5
:100E7000306840F480303060FFF796FC054600BFD4
:100E8000306880033FF585AEFFF78EFC401B642879
:100E9000F6D9032002B0BDE8F08100BF206AB0F5AA
:100EA000803F05D17168A26821F40031114371605F
:100EB0007168626A21F47411104308437060012064
:100EC0003866FFF771FC0446306880013FF598AE44
:100ED000FFF76AFC001B02284FF00300F4D990E6EC
:100EE000411E0020B0EB116F1CBF012070474EF275
:100EF0001002CEF2000251604EF62351CEF20001F4
:100F0000F0230B700721906011607047704700005C
:100F100070470000B0B582B0044600680168C3683D
:100F2000426901F02F05202D03F0200506D12DB1D7
:100F3000204602B0BDE8B04000F038BC5FEA017C5A
:100F40001EBF02F0010E03F4907212EB0E0255D197
:100F5000226B012A05D111F0100218BF13F0100204
:100F600036D10A0622D513F080021FD094F8411022
:100F7000212941D1A168B1F5805F03D12169002900
:100F800000F07282216A4A1C226209784160E18C79
:100F900001390A04E1842FD1C16821F08001C160C8
:100FA000C16841F04001C16002B0B0BD490623D51F
:100FB00013F0400120D0C16821F04001C160202120
:100FC000204684F8411002B0BDE8B04000F07EBB7E
:100FD00000210191016801914168019101994169E4
:100FE000490600F18F80A18DE28DE38D002B1CBF9F
:100FF000891A5FEA01420CD102B0B0BDCA0718BF1E
:1010000013F4807240F038814A0700F13B8140E1DF
:10101000206850E8030F226820F4907042E8030330
:10102000DBB1206850E8030F226820F4907042E89A
:10103000030393B1206850E8030F226820F49070F6
:1010400042E803034BB1206850E8030F226820F404
:10105000907042E80303002BDAD1206850E8050FB6
:10106000226820F0010042E80503DBB1206850E867
:10107000050F226820F0010042E8050393B12068C3
:1010800050E8050F226820F0010042E805034BB14B
:10109000206850E8050F226820F0010042E80503AF
:1010A000002BDAD1202084F8420000202063206841
:1010B00050E8030F226820F0100042E80303DBB180
:1010C000206850E8030F226820F0100042E8030374
:1010D00093B1206850E8030F226820F0100042E826
:1010E00003034BB1206850E8030F226820F0100082
:1010F00042E80303002BDAD1022289B22046626360
:10110000B4E000BFE16B0A68526893B2002B3FF471
:1011100073AFA58DAB42BFF46FAFE285896920291B
:1011200000F09D8050E8030F216820F4807041E8B2
:101130000302EAB1206850E8030F216820F48070B0
:1011400041E80302A2B1206850E8030F216820F4AF
:10115000807041E803025AB1206850E8030F21680B
:1011600020F4807041E8030212B12068DAE700BF82
:10117000206850E8050F216820F0010041E80502D1
:10118000DAB1206850E8050F216820F0010041E83D
:10119000050292B1206850E8050F216820F0010097
:1011A00041E805024AB1206850E8050F216820F0A7
:1011B000010041E80502002ADAD1206850E8050F55
:1011C000216820F0400041E80502DAB1206850E8CB
:1011D000050F216820F0400041E8050292B1206827
:1011E00050E8050F216820F0400041E805024AB1AF
:1011F000206850E8050F216820F0400041E8050212
:10120000002ADAD1202084F84200002020632068E0
:1012100050E8030F216820F0100041E80302DAB122
:10122000206850E8030F216820F0100041E8030215
:1012300092B1206850E8030F216820F0100041E8C7
:1012400003024AB1206850E8030F216820F0100023
:1012500041E80302002ADAD1E06BFFF709F8022027
:101260006063A08DE18D401A81B2204602B0BDE8D6
:10127000B040FFF74BBE00BF626C42F001026264F7
:101280004A0706D5BEF1000F03D0626C42F002029D
:1012900062648A0706D5BEF1000F03D0626C42F08B
:1012A00004026264BCF1000F06D555EA0E0203D0B9
:1012B000626C42F008026264626C002A3FF49CAEE9
:1012C00011F0200118BF002D03D0204600F06EFA67
:1012D00020684169626C01F0400102F0080289183F
:1012E00000F0A28050E8030F216820F4907041E8DC
:1012F0000302C2B3206850E8030F216820F4907005
:1013000041E803027AB3206850E8030F216820F413
:10131000907041E8030232B3206850E8030F21685F
:1013200020F4907041E80302EAB12068DAE700BFD8
:10133000206850E8050F216820F0010041E805020F
:10134000DAB1206850E8050F216820F0010041E87B
:10135000050292B1206850E8050F216820F00100D5
:1013600041E805024AB1206850E8050F216820F0E5
:10137000010041E80502002ADAD1206B012824D1BE
:10138000206850E8030F216820F0100041E80302B4
:10139000DAB1206850E8030F216820F0100041E81E
:1013A000030292B1206850E8030F216820F010007A
:1013B00041E803024AB1206850E8030F216820F099
:1013C000100041E80302002ADAD1202084F842000C
:1013D000002020632068416949063FD550E8050F89
:1013E000216820F0400041E805022AB3206850E857
:1013F000050F216820F0400041E80502E2B12068B5
:1014000050E8050F216820F0400041E805029AB13C
:10141000206850E8050F216820F0400041E80502EF
:1014200052B12068DAE700BF2046FFF771FD0020C7
:10143000606402B0B0BD00BFE06B78B141F2A17151
:10144000C0F600014163FEF737FF00283FF4D4AD3A
:10145000E06B416B02B0BDE8B0400847204602B0E7
:10146000BDE8B040FFF754BD216A31F8022B6FF39D
:101470005F22426021628AE5002804BF0120704794
:1014800010B5044690F8410028B9002084F84000C7
:10149000204600F061F8242084F841002068D4E957
:1014A0000212C36823F40053C360036923F440535A
:1014B0001A430261D4E904231143C268194341F27B
:1014C0000C639A431143C1604169A26921F44071E0
:1014D000114343F60002C4F201029042416103D07D
:1014E000FFF7FCFA02E000BFFFF70CFB626819216E
:1014F00048439100B0FBF1F048F21F51C5F2EB11E7
:10150000A0FB01235A096FF0630302FB030032239F
:1015100003EB0010A0FB0101F02303EA5113206844
:1015200003EB0212C1F3431111448160016921F4FC
:1015300090410161416921F02A014161C16841F492
:101540000051C16000202021606484F8411084F8BB
:101550004210606310BD00002DE9F04186B040F6F6
:1015600000050446C4F20105006805F54051002756
:101570008842049702D006B0BDE8F08141F218001D
:10158000C4F20200016802AE41F4804101600168CA
:1015900040F2440801F48041019101990168C4F2CC
:1015A000020841F0040101600068314600F00400C7
:1015B000019001984FF400700290022003900320E4
:1015C00005902846FEF7E6FF4FF48060CDE902075C
:1015D000284631460497FEF7DDFF40F2800508F10A
:1015E0001400C2F200058026C5E900072846C5E9B7
:1015F0000276C5E90477C5E90677FEF787FF00287C
:1016000018BFFEF72FFEE5636C6240F2C405C2F21C
:10161000000510200021C5E900802846C5E9021612
:10162000C5E90411C5E90611FEF770FF002818BFCF
:10163000FEF718FE252000210022A5636C62FFF74B
:1016400031F92520FFF71EF906B0BDE8F081000052
:1016500010B5006843F60001C4F20101884201D0D0
:1016600010BD00BF40F27000C2F200000178A52951
:1016700002D10122427002E04278012AF0D1B0F991
:101680000220531C1FFA83FC0244BCF1070F438065
:101690001172E5D1827B00215A2A41704180DFD14D
:1016A00090F809C0837A90F80BE0017B03EB0C0201
:1016B00072440A44447BD2B2A24218BF10BD43EA2E
:1016C0000C2241EA0E218280C18010BD70470000CB
:1016D000FEE7000080B582B041F21400C4F20200BF
:1016E0000168002241F0010101600068002100F062
:1016F0000100019001980E20FFF7D4F80E20FFF7AB
:10170000C1F80F2000210022FFF7CCF80F2002B013
:10171000BDE88040FFF7B6B882B041F21800C4F2CD
:101720000200016841F020010160016801F0200120
:1017300001910199016841F004010160006800F025
:1017400004000090009802B07047000080B540F29D
:10175000081043F60001C2F20000C4F201010023A8
:101760004FF00C0C4FF4E13280E80E00C0E9033377
:10177000C0E905C3C361FFF77FFE002808BF80BD35
:10178000BDE88040FEF76EBDFEE70000FEE700000A
:101790007047000070470000FFF70CB8704700006A
:1017A000406A0021C185C184FFF7B2BB81B090F8C7
:1017B0004210222920D18368B3F5805F08D10169E6
:1017C000002965D000F128010A6803685B680AE017
:1017D000014651F8282F13B90369002BF5D003688F
:1017E0005B6803F07F0313700A6801320A60C18DE1
:1017F00001390A04C18501D001B070470168CA6887
:1018000022F02002CA60CA6822F48072CA604A6963
:1018100022F001024A61202280F842200022426325
:10182000036B012B3ED1026351E8031F026821F0D4
:10183000100142E803130168DBB151E8031F02689D
:1018400021F0100142E80313016893B151E8031F2E
:10185000026821F0100142E8031301684BB151E81E
:10186000031F026821F0100142E803130168002BF6
:10187000DAD10A68D20606D5002200920A680092E0
:10188000496800910099818D01B0FFF73FBB00BF0F
:101890000168826A49686FF35F2122F8021B826245
:1018A000A5E700BF01B0FFF7D3BE000040F208106B
:1018B000C2F20000FFF72EBBFEE7000090B0FEF77B
:1018C00087FF00240120CDE90B44CDE909440690AF
:1018D0000A904FF4E0104FF4803102250F9006A8D3
:1018E000CDE90714CDE90D51FFF720F920B1EFF351
:1018F000108072B6FEE700BF0F20CDE901054FF45E
:101900008060CDE9040401A802210394FFF706F8E2
:1019100020B1EFF3108072B6FEE700BFFFF7FCFEC8
:10192000FFF7D8FEFFF712FFFEE7000000000000FF
:10193000000001020304060708090000000001027C
:101940000304010202030405060708090A0B0C0D33
:101950000E0F101078190008000000201000000081
:10196000280100088819000810000020480700001E
:101970004401000800000000010000001000000009
:081980000024F4000000000047
:04000005080000ED02
:00000001FF
